{
  "_format": "hh-sol-artifact-1",
  "contractName": "AgendaDAO",
  "sourceName": "contracts/AgendaDAO.sol",
  "abi": [
    {
      "inputs": [
        {
          "internalType": "address",
          "name": "_voteToken",
          "type": "address"
        },
        {
          "internalType": "address",
          "name": "_identityRegistry",
          "type": "address"
        }
      ],
      "stateMutability": "nonpayable",
      "type": "constructor"
    },
    {
      "inputs": [],
      "name": "AlreadyExecuted",
      "type": "error"
    },
    {
      "inputs": [],
      "name": "AlreadyVoted",
      "type": "error"
    },
    {
      "inputs": [],
      "name": "NoVotingPower",
      "type": "error"
    },
    {
      "inputs": [],
      "name": "NotPassed",
      "type": "error"
    },
    {
      "inputs": [],
      "name": "VotingEnded",
      "type": "error"
    },
    {
      "inputs": [],
      "name": "VotingNotEnded",
      "type": "error"
    },
    {
      "anonymous": false,
      "inputs": [
        {
          "indexed": true,
          "internalType": "uint256",
          "name": "id",
          "type": "uint256"
        },
        {
          "indexed": true,
          "internalType": "address",
          "name": "proposer",
          "type": "address"
        },
        {
          "indexed": false,
          "internalType": "string",
          "name": "description",
          "type": "string"
        },
        {
          "indexed": false,
          "internalType": "bytes",
          "name": "callData",
          "type": "bytes"
        },
        {
          "indexed": false,
          "internalType": "address",
          "name": "target",
          "type": "address"
        },
        {
          "indexed": false,
          "internalType": "uint256",
          "name": "startTime",
          "type": "uint256"
        },
        {
          "indexed": false,
          "internalType": "uint256",
          "name": "endTime",
          "type": "uint256"
        }
      ],
      "name": "ProposalCreated",
      "type": "event"
    },
    {
      "anonymous": false,
      "inputs": [
        {
          "indexed": true,
          "internalType": "uint256",
          "name": "id",
          "type": "uint256"
        },
        {
          "indexed": false,
          "internalType": "bool",
          "name": "success",
          "type": "bool"
        }
      ],
      "name": "ProposalExecuted",
      "type": "event"
    },
    {
      "anonymous": false,
      "inputs": [
        {
          "indexed": true,
          "internalType": "uint256",
          "name": "proposalId",
          "type": "uint256"
        },
        {
          "indexed": true,
          "internalType": "address",
          "name": "voter",
          "type": "address"
        },
        {
          "indexed": false,
          "internalType": "bool",
          "name": "support",
          "type": "bool"
        },
        {
          "indexed": false,
          "internalType": "uint256",
          "name": "votes",
          "type": "uint256"
        }
      ],
      "name": "Voted",
      "type": "event"
    },
    {
      "inputs": [],
      "name": "VOTING_PERIOD",
      "outputs": [
        {
          "internalType": "uint256",
          "name": "",
          "type": "uint256"
        }
      ],
      "stateMutability": "view",
      "type": "function"
    },
    {
      "inputs": [
        {
          "internalType": "uint256",
          "name": "proposalId",
          "type": "uint256"
        }
      ],
      "name": "canExecute",
      "outputs": [
        {
          "internalType": "bool",
          "name": "",
          "type": "bool"
        }
      ],
      "stateMutability": "view",
      "type": "function"
    },
    {
      "inputs": [
        {
          "internalType": "uint256",
          "name": "proposalId",
          "type": "uint256"
        }
      ],
      "name": "execute",
      "outputs": [
        {
          "internalType": "bool",
          "name": "",
          "type": "bool"
        }
      ],
      "stateMutability": "nonpayable",
      "type": "function"
    },
    {
      "inputs": [
        {
          "internalType": "uint256",
          "name": "proposalId",
          "type": "uint256"
        }
      ],
      "name": "getProposal",
      "outputs": [
        {
          "internalType": "uint256",
          "name": "id",
          "type": "uint256"
        },
        {
          "internalType": "address",
          "name": "proposer",
          "type": "address"
        },
        {
          "internalType": "string",
          "name": "description",
          "type": "string"
        },
        {
          "internalType": "bytes",
          "name": "callData",
          "type": "bytes"
        },
        {
          "internalType": "address",
          "name": "target",
          "type": "address"
        },
        {
          "internalType": "uint256",
          "name": "forVotes",
          "type": "uint256"
        },
        {
          "internalType": "uint256",
          "name": "againstVotes",
          "type": "uint256"
        },
        {
          "internalType": "uint256",
          "name": "startTime",
          "type": "uint256"
        },
        {
          "internalType": "uint256",
          "name": "endTime",
          "type": "uint256"
        },
        {
          "internalType": "bool",
          "name": "executed",
          "type": "bool"
        }
      ],
      "stateMutability": "view",
      "type": "function"
    },
    {
      "inputs": [],
      "name": "getProposalCount",
      "outputs": [
        {
          "internalType": "uint256",
          "name": "",
          "type": "uint256"
        }
      ],
      "stateMutability": "view",
      "type": "function"
    },
    {
      "inputs": [
        {
          "internalType": "uint256",
          "name": "proposalId",
          "type": "uint256"
        },
        {
          "internalType": "address",
          "name": "user",
          "type": "address"
        }
      ],
      "name": "hasUserVoted",
      "outputs": [
        {
          "internalType": "bool",
          "name": "",
          "type": "bool"
        }
      ],
      "stateMutability": "view",
      "type": "function"
    },
    {
      "inputs": [
        {
          "internalType": "uint256",
          "name": "",
          "type": "uint256"
        },
        {
          "internalType": "address",
          "name": "",
          "type": "address"
        }
      ],
      "name": "hasVoted",
      "outputs": [
        {
          "internalType": "bool",
          "name": "",
          "type": "bool"
        }
      ],
      "stateMutability": "view",
      "type": "function"
    },
    {
      "inputs": [],
      "name": "identityRegistry",
      "outputs": [
        {
          "internalType": "address",
          "name": "",
          "type": "address"
        }
      ],
      "stateMutability": "view",
      "type": "function"
    },
    {
      "inputs": [],
      "name": "proposalCount",
      "outputs": [
        {
          "internalType": "uint256",
          "name": "",
          "type": "uint256"
        }
      ],
      "stateMutability": "view",
      "type": "function"
    },
    {
      "inputs": [
        {
          "internalType": "uint256",
          "name": "",
          "type": "uint256"
        }
      ],
      "name": "proposals",
      "outputs": [
        {
          "internalType": "uint256",
          "name": "id",
          "type": "uint256"
        },
        {
          "internalType": "address",
          "name": "proposer",
          "type": "address"
        },
        {
          "internalType": "string",
          "name": "description",
          "type": "string"
        },
        {
          "internalType": "bytes",
          "name": "callData",
          "type": "bytes"
        },
        {
          "internalType": "address",
          "name": "target",
          "type": "address"
        },
        {
          "internalType": "uint256",
          "name": "forVotes",
          "type": "uint256"
        },
        {
          "internalType": "uint256",
          "name": "againstVotes",
          "type": "uint256"
        },
        {
          "internalType": "uint256",
          "name": "startTime",
          "type": "uint256"
        },
        {
          "internalType": "uint256",
          "name": "endTime",
          "type": "uint256"
        },
        {
          "internalType": "bool",
          "name": "executed",
          "type": "bool"
        }
      ],
      "stateMutability": "view",
      "type": "function"
    },
    {
      "inputs": [
        {
          "internalType": "string",
          "name": "description",
          "type": "string"
        },
        {
          "internalType": "bytes",
          "name": "callData",
          "type": "bytes"
        },
        {
          "internalType": "address",
          "name": "target",
          "type": "address"
        }
      ],
      "name": "propose",
      "outputs": [
        {
          "internalType": "uint256",
          "name": "",
          "type": "uint256"
        }
      ],
      "stateMutability": "nonpayable",
      "type": "function"
    },
    {
      "inputs": [
        {
          "internalType": "uint256",
          "name": "proposalId",
          "type": "uint256"
        },
        {
          "internalType": "bool",
          "name": "support",
          "type": "bool"
        }
      ],
      "name": "vote",
      "outputs": [],
      "stateMutability": "nonpayable",
      "type": "function"
    },
    {
      "inputs": [],
      "name": "voteToken",
      "outputs": [
        {
          "internalType": "contract IERC20",
          "name": "",
          "type": "address"
        }
      ],
      "stateMutability": "view",
      "type": "function"
    }
  ],
  "bytecode": "0x60c060405234801561001057600080fd5b5060405161109938038061109983398101604081905261002f91610062565b6001600160a01b039182166080521660a052610095565b80516001600160a01b038116811461005d57600080fd5b919050565b6000806040838503121561007557600080fd5b61007e83610046565b915061008c60208401610046565b90509250929050565b60805160a051610fd86100c1600039600061010b01526000818161014a01526107f10152610fd86000f3fe608060405234801561001057600080fd5b50600436106100cf5760003560e01c8063c08cc02d1161008c578063cc63604a11610066578063cc63604a14610204578063da35c66414610217578063dc296ae114610220578063fe0d94c11461023357600080fd5b8063c08cc02d146101d4578063c7f758a8146101dc578063c9d27afe146101ef57600080fd5b8063013cf08b146100d4578063134e18f414610106578063160d66ae14610145578063438596321461016c57806387457a3c146101aa578063b1610d7e146101cb575b600080fd5b6100e76100e2366004610ad9565b610246565b6040516100fd9a99989796959493929190610b38565b60405180910390f35b61012d7f000000000000000000000000000000000000000000000000000000000000000081565b6040516001600160a01b0390911681526020016100fd565b61012d7f000000000000000000000000000000000000000000000000000000000000000081565b61019a61017a366004610bcc565b600260209081526000928352604080842090915290825290205460ff1681565b60405190151581526020016100fd565b6101bd6101b8366004610c41565b6103be565b6040519081526020016100fd565b6101bd61012c81565b6000546101bd565b6100e76101ea366004610ad9565b6105c8565b6102026101fd366004610cc2565b61076c565b005b61019a610212366004610ad9565b61092f565b6101bd60005481565b61019a61022e366004610bcc565b610970565b61019a610241366004610ad9565b61099d565b60016020819052600091825260409091208054918101546002820180546001600160a01b03909216929161027990610cf7565b80601f01602080910402602001604051908101604052809291908181526020018280546102a590610cf7565b80156102f25780601f106102c7576101008083540402835291602001916102f2565b820191906000526020600020905b8154815290600101906020018083116102d557829003601f168201915b50505050509080600301805461030790610cf7565b80601f016020809104026020016040519081016040528092919081815260200182805461033390610cf7565b80156103805780601f1061035557610100808354040283529160200191610380565b820191906000526020600020905b81548152906001019060200180831161036357829003601f168201915b5050506004840154600585015460068601546007870154600888015460099098015496976001600160a01b0390941696929550909350919060ff168a565b60008054819081806103cf83610d47565b9091555090504260006103e461012c83610d60565b9050604051806101400160405280848152602001336001600160a01b031681526020018a8a8080601f016020809104026020016040519081016040528093929190818152602001838380828437600092019190915250505090825250604080516020601f8b0181900481028201810190925289815291810191908a908a908190840183828082843760009201829052509385525050506001600160a01b038881166020808501919091526040808501849052606085018490526080850188905260a0850187905260c0909401839052878352600180825292849020855181559085015192810180546001600160a01b031916939092169290921790559082015160028201906104f39082610dda565b50606082015160038201906105089082610dda565b5060808201516004820180546001600160a01b0319166001600160a01b0390921691909117905560a0820151600582015560c0820151600682015560e082015160078201556101008201516008820155610120909101516009909101805460ff1916911515919091179055604051339084907fd5db3e97cc31a310a9863780c9d0bafd0dc2e5a5def63e5f42eeb426190f9357906105b3908d908d908d908d908d908b908b90610ec3565b60405180910390a35090979650505050505050565b600081815260016020819052604082208054918101546004820154600583015460068401546007850154600886015460098701546002880180548b9a60609a8b9a8d9a8b9a8b9a8b9a8b9a8b9a969997986001600160a01b03968716989760038c01979096169560ff1690889061063e90610cf7565b80601f016020809104026020016040519081016040528092919081815260200182805461066a90610cf7565b80156106b75780601f1061068c576101008083540402835291602001916106b7565b820191906000526020600020905b81548152906001019060200180831161069a57829003601f168201915b505050505097508680546106ca90610cf7565b80601f01602080910402602001604051908101604052809291908181526020018280546106f690610cf7565b80156107435780601f1061071857610100808354040283529160200191610743565b820191906000526020600020905b81548152906001019060200180831161072657829003601f168201915b505050505096509a509a509a509a509a509a509a509a509a509a50509193959799509193959799565b60008281526001602052604090206008810154421061079e57604051637a19ed0560e01b815260040160405180910390fd5b600083815260026020908152604080832033845290915290205460ff16156107d957604051637c9a1cf960e01b815260040160405180910390fd5b6040516370a0823160e01b81523360048201526000907f00000000000000000000000000000000000000000000000000000000000000006001600160a01b0316906370a0823190602401602060405180830381865afa158015610840573d6000803e3d6000fd5b505050506040513d601f19601f820116820180604052508101906108649190610f13565b90508060000361088757604051631f05dadd60e21b815260040160405180910390fd5b60008481526002602090815260408083203384529091529020805460ff1916600117905582156108d057808260050160008282546108c59190610d60565b909155506108ea9050565b808260060160008282546108e49190610d60565b90915550505b60408051841515815260208101839052339186917f7c2de587c00d75474a0c6c6fa96fd3b45dc974cd4e8a75f712bb84c950dce1b5910160405180910390a350505050565b6000818152600160205260408120600881015442108015906109565750600981015460ff16155b8015610969575080600601548160050154115b9392505050565b60008281526002602090815260408083206001600160a01b038516845290915290205460ff165b92915050565b600081815260016020526040812060088101544210156109d057604051633fc30bd160e11b815260040160405180910390fd5b600981015460ff16156109f657604051630dc1019760e01b815260040160405180910390fd5b8060060154816005015411610a1e57604051632c9ad69960e21b815260040160405180910390fd5b60098101805460ff1916600117905560048101546040516000916001600160a01b031690610a50906003850190610f2c565b6000604051808303816000865af19150503d8060008114610a8d576040519150601f19603f3d011682016040523d82523d6000602084013e610a92565b606091505b50509050837f948f4a9cd986f1118c3fbd459f7a22b23c0693e1ca3ef06a6a8be5aa7d39cc0382604051610aca911515815260200190565b60405180910390a29392505050565b600060208284031215610aeb57600080fd5b5035919050565b6000815180845260005b81811015610b1857602081850181015186830182015201610afc565b506000602082860101526020601f19601f83011685010191505092915050565b8a81526001600160a01b038a8116602083015261014060408301819052600091610b648483018d610af2565b91508382036060850152610b78828c610af2565b99166080840152505060a081019590955260c085019390935260e0840191909152610100830152151561012090910152949350505050565b80356001600160a01b0381168114610bc757600080fd5b919050565b60008060408385031215610bdf57600080fd5b82359150610bef60208401610bb0565b90509250929050565b60008083601f840112610c0a57600080fd5b50813567ffffffffffffffff811115610c2257600080fd5b602083019150836020828501011115610c3a57600080fd5b9250929050565b600080600080600060608688031215610c5957600080fd5b853567ffffffffffffffff80821115610c7157600080fd5b610c7d89838a01610bf8565b90975095506020880135915080821115610c9657600080fd5b50610ca388828901610bf8565b9094509250610cb6905060408701610bb0565b90509295509295909350565b60008060408385031215610cd557600080fd5b8235915060208301358015158114610cec57600080fd5b809150509250929050565b600181811c90821680610d0b57607f821691505b602082108103610d2b57634e487b7160e01b600052602260045260246000fd5b50919050565b634e487b7160e01b600052601160045260246000fd5b600060018201610d5957610d59610d31565b5060010190565b8082018082111561099757610997610d31565b634e487b7160e01b600052604160045260246000fd5b601f821115610dd5576000816000526020600020601f850160051c81016020861015610db25750805b601f850160051c820191505b81811015610dd157828155600101610dbe565b5050505b505050565b815167ffffffffffffffff811115610df457610df4610d73565b610e0881610e028454610cf7565b84610d89565b602080601f831160018114610e3d5760008415610e255750858301515b600019600386901b1c1916600185901b178555610dd1565b600085815260208120601f198616915b82811015610e6c57888601518255948401946001909101908401610e4d565b5085821015610e8a5787850151600019600388901b60f8161c191681555b5050505050600190811b01905550565b81835281816020850137506000828201602090810191909152601f909101601f19169091010190565b60a081526000610ed760a08301898b610e9a565b8281036020840152610eea81888a610e9a565b6001600160a01b0396909616604084015250506060810192909252608090910152949350505050565b600060208284031215610f2557600080fd5b5051919050565b6000808354610f3a81610cf7565b60018281168015610f525760018114610f6757610f96565b60ff1984168752821515830287019450610f96565b8760005260208060002060005b85811015610f8d5781548a820152908401908201610f74565b50505082870194505b5092969550505050505056fea2646970667358221220ffba129c9aaaacfd3c320a6d76b21119d30e74c9b7f1840f7a8eeea4a12d7fa364736f6c63430008180033",
  "linkReferences": {},
  "deployedLinkReferences": {}
}